:020000040000FA
:10000000000C0020D5000000EF000000F10000000F
:1000100000000000000000000000000000000000E0
:10002000000000000000000000000000F3000000DD
:100030000000000000000000F5000000F7000000D4
:10004000F900000041020000D9030000F90000009F
:10005000F900000000000000F9000000F9000000B5
:1000600095030000F9000000F9000000F90000000D
:10007000F9000000F9000000F9000000F90000009C
:10008000F9000000F9000000F9000000F90000008C
:10009000C1020000F9000000F9000000F9000000B2
:1000A000F9000000F900000000000000000000005E
:1000B0000000000000000000000000000000000040
:1000C0000348854600F046F800480047A90A0000AA
:1000D000000C00200321094802680A430260084816
:1000E00002680A4302600748804707480047FEE766
:1000F000FEE7FEE7FEE7FEE7FEE70000240500401E
:100100005405004031030000C100000003460B43CA
:100110009B0703D009E008C9121F08C0042AFAD2BD
:1001200003E00B780370401C491C521EF9D2704743
:10013000D2B201E00270401C491EFBD2704700227F
:10014000F6E710B513460A4604461946FFF7F0FFD6
:10015000204610BD064C0125064E05E0E36807CC9D
:100160002B430C3C98471034B442F7D3FFF7ACFF55
:100170005820000078200000C206D20E01219140D4
:10018000014A11607047000080E200E0C206D20E12
:1001900001219140014A11607047000080E100E0B8
:1001A000C206D20E01219140014A11607047000041
:1001B00000E100E0C206D20E01219140014A116027
:1001C0007047000000E200E010B5002819DA1A4A72
:1001D00003071B0F083B9B089B00D2588307DC0ECC
:1001E000FF23A3409A438B071B0E8407E40EA34012
:1001F0001A43114B0407240F083CA408A4001A5109
:1002000018E00E4A03231B02D21883089B00D25821
:100210008307DC0EFF23A3409A438B071B0E840742
:10022000E40EA3401A43054B032424021B1984083F
:10023000A4001A5110BD00001CED00E000E100E038
:1002400010B51B480068002808D01A484068C0074D
:10025000C00F002802D00020154908601448C0686B
:1002600000280FD01348406808210840002809D012
:1002700000200F49C86010480068002802D00E48CE
:10028000006880470A48006900280FD00948406884
:1002900010210840002809D00020054908610748BE
:1002A0000068002802D005480068804710BD0000A3
:1002B0000011004000130040700000206C0000207E
:1002C0003EB519480068019002A800F009FE0446F6
:1002D000002C27D115480068002823D00298C007B9
:1002E000C00F002806D000206946087068460F49F4
:1002F00009688847022102980840002806D001209A
:1003000069460870684609490968884704210298C7
:100310000840002806D00220694608706846034954
:10032000096888473EBD00006400002044000020AA
:1003300010B500F059FB002805D01048104948605E
:10034000C8131049886100F033FB002802D0012057
:100350000D49886000F07EFB00280ED00B48006835
:10036000012807D00A480949086000BF074800680B
:100370000128FBD1C0200549486110BDDFFF07C03F
:1003800000050040006C00400006004000EC064004
:100390007593000010B500200C4908600C480068F7
:1003A00000280FD00A480068042805D908480068CA
:1003B000001F0749086005E00C21064800F01EF9FF
:1003C00000F068F900F09AFA10BD0000408100408A
:1003D00008000020A400002010B50249024801F0E6
:1003E0009BFC10BDB00000200020004002E008C8C7
:1003F000121F08C1002AFAD170477047002001E09F
:1004000001C1121F002AFBD1704710B504462046D7
:1004100000F002F800BA10BD014608680D4A02401B
:1004200012090C4BDB4303401B011A4310460A4AD6
:1004300002409208084BDB4303409B001A431046DE
:10044000064A02405208054BDB4303405B001A4357
:1004500010467047F0F0F0F0CCCCCCCCAAAAAAAAF7
:1004600010B5FF201430104908601049C87C1049AD
:10047000096888470F481049486000200F49086103
:1004800001200F49086100BF0C4800690028FBD01B
:1004900000200A490861FF20183003490860012044
:1004A0000749486010BD000000120040CC00002049
:1004B00074000020AE030020001500400011004031
:1004C00000100040002005490860012081070860F5
:1004D00000BF024800680028FBD0704700010040C0
:1004E000F0B586B005AD334E756000215EE00020AA
:1004F00005E0002546006F46BD53451CE8B20A28BA
:10050000F7DB002300224BE0002045E00A254D43A5
:10051000294EAD192D5C274EB5600025274E35605C
:100520000125274E756000BF244D2D68002DFBD09E
:100530000025224EF5600125214EB56000251F4E95
:10054000F56101251E4E756100BF1C4DED69002D42
:10055000FBD045006E46755B164E4036B668AD1949
:1005600046006F46BD530025144E35610125144EDB
:10057000356100BF114D2D69002DFBD045006E4641
:10058000755B9D4206DD4500735B0A254D430A4EAF
:10059000AD192C5C451CE8B20A28B7DB551CAAB281
:1005A000FF2AB1DD074D6C544D1CE9B203299EDBD7
:1005B00006B0F0BD001500401F20000000110040F3
:1005C00000100040A800002070B50C46CE17B60FF2
:1005D0003619B610B6008E1B00D070BD012424075A
:1005E0002569EC01631B002203E010CB10C0141D31
:1005F000A2B28A42F9DB00BFEFE7000070B5024605
:100600000C46CE17B60F3619B610B6008E1B00D0AA
:1006100070BD72B6012424072569EC01601B022419
:100620001A4E746000BF1A4C2468002CFBD0174C83
:10063000A06000BF164C2468002CFBD00124134E90
:10064000746000BF124C2468002CFBD000230AE029
:100650001468046000BF0E4C2468002CFBD0001D01
:10066000121D1C1DA3B28B42F2DB00BF084C246894
:10067000002CFBD00024054E746000BF044C24689D
:10068000002CFBD062B600BFC2E7000000E50140CD
:1006900000E4014010B500200A49086000F082F92A
:1006A000032209490948FFF731FD00200849087075
:1006B00003200849087000F067F9152000F08CFE4F
:1006C00010BD000008000020A8000020000000204D
:1006D000030000200C00002070B5012023490870A1
:1006E000FFF7FEFE002000F051F80446002C04D075
:1006F000FF219831204600F095FA03221C491D483D
:10070000FFF704FD00201C4908701A491A4A1278A4
:10071000885C00F027FD00280AD01649164A127896
:10072000885C00F01FFD0546FF219D3100F07AFA3C
:1007300000201249087012481249086002200B4933
:100740000870002010490872C87100F023FD0446AB
:10075000002C04D0FF21A931204600F063FA00F0FC
:1007600013F9152000F030FE70BD000003000020DA
:100770001C200000000000200C000020370000209A
:100780003075000008000020A400002030B587B0BC
:1007900004461822114901A8FFF7B8FC0021684659
:1007A00041820121017101730120214641406846C7
:1007B00041710B48029001216846017600F00EFA63
:1007C00001A800F0AFFB054600BF002D02D028466F
:1007D00007B030BD00BF2846FAE700004020000007
:1007E0005D0C00007CB5152000F0E1FD152000F047
:1007F000F3FD162000F0DBFD162000F0EDFD1720C4
:1008000000F0D5FD172000F0E7FD182000F0CFFD27
:10081000182000F0E1FD112503240020009023465C
:10082000024601460190284600F0AEFD00BF7CBDA7
:1008300010B515480078401C134908700846007828
:10084000032801DB0020087000BF00F0C1FB002876
:1008500006D100F0E9FC002802D00020FFF796FF47
:1008600000BF0A49084A1278885C00F07BFC002827
:1008700009D00649044A1278885C00F073FC0446EB
:10088000802100F0CFF910BD0C00002000000020F6
:1008900010B50146064B5A6A002005E0C400134615
:1008A000E3400B54431CD8B20428F7DB10BD000012
:1008B0004000001010B501F033F8002007E02521BA
:1008C00041430A4A89188200094B9950401C082864
:1008D000F5DB002007E025214143064A8918820004
:1008E000054B9950401C0828F5DB10BDE4000020A2
:1008F0000C020020380200206003002010B5FFF732
:1009000097FF0C480078002802D1182000F06CFDF9
:1009100009480078002805D10120FFF737FF01F0D2
:10092000A9F805E004480078022801D100F032FC63
:1009300010BD00000C0000200300002001200D4924
:10094000C86000200C4948600420086102208860CB
:100950007D204001084940310860012007490860B6
:10096000000407494860082001218140054A1160C0
:1009700000BF7047008000400085004000820040BA
:100980000083004000E100E001200449C86000202D
:100990000349086001200149086070470080004059
:1009A00040810040012001494860704700800040BC
:1009B0000C48008CC0B2012812D10A48808C000774
:1009C000000F00280CD10748806AF0210840402819
:1009D00006D10448C06A0840002801D101207047B0
:1009E0000020FCE7C00F00F01948008CC0B20128BD
:1009F0002CD11748808C0007000F002826D11448FE
:100A0000806AF0210840002806D11148C06A0840D9
:100A1000002801D1012070470D48806AF02108406C
:100A2000102806D10A48C06A0840002801D10120D8
:100A3000F1E70748806AF0210840302806D10448D1
:100A4000C06A0840002801D10120E4E70020E2E765
:100A5000C00F00F01348008CC0B201281FD111480C
:100A6000808C0007000F002819D10E48806AF02101
:100A70000840A02806D10B48C06A0840002801D1D0
:100A8000012070470748806AF0210840D02806D12D
:100A90000448C06A0840002801D10120F1E7002085
:100AA000EFE70000C00F00F03EB5002543A000684E
:100AB000029043A103C901910090FFF793FE002427
:100AC000002C04D083218900204600F0ABF8FFF70A
:100AD000F9FCFFF733FF3C48FFF7DAFE0C213B48F7
:100AE000FFF772FD394800683949884204D008464A
:100AF00036490860012530E03448007A002805D1E5
:100B00003248C079002801D1012526E00021314A70
:100B1000117000200BE005210A1A01219140C9B291
:100B20002C4A127811432B4A1170411CC8B2274934
:100B3000C9798142EFDC00200AE001210A1A9140C4
:100B4000C9B2244A12781143224A1170411CC8B21A
:100B50001E49097A8142F0DC00BF02A800F096FA33
:100B6000044600BF002C01D020463EBD00BF164801
:100B700000F0AAFA044600BF002C01D02046F4E79A
:100B800000BF0721684600F0BDFA044600BF002CF4
:100B900001D02046E9E700BF002D07D111200E4902
:100BA0000969C140C907C90F002902D1FFF794FDA7
:100BB00001E0FFF76FFD62B600BFFEE712346798F1
:100BC000880102030405060032000020A400002072
:100BD00078563412370000200005005010B50F2061
:100BE00080020B49886000200A49087000F098FED6
:100BF00024210948FFF7A3FA09210848FFF79FFAC3
:100C00001420FFF7C3FA032005490860002010BD37
:100C100000F501403D000020DA030020D003002051
:100C20000012004000BF00BF00BF00BF00BFBFF305
:100C30004F8F00BF00BF00BF06480749C86000BF14
:100C400000BF00BFBFF34F8F00BF00BF00BF00BF9A
:100C500000BFFDE70400FA0500ED00E010B58CB020
:100C600004462078002804D0012812D002280FD191
:100C70001CE0162000F0B0FB00F0F8F800F016F9C8
:100C800073480078002803D1FFF780FD00F082FA56
:100C9000DBE000F0EBF800F009F96D48007800287F
:100CA00003D1FFF773FD00F075FACEE0694800F05C
:100CB00099F900287AD100F0D9F86548007802281F
:100CC00075D1644800780228FAD1624840791A2820
:100CD00002D01B284AD14AE000205F4908705F49D2
:100CE0000A88684602804988418003225C4901A83D
:100CF000FFF70CFAFF216846C17156488079012838
:100D00000ED15748001FC07904281BDA0120524930
:100D100008705348001FC079401C6946C87111E033
:100D20004C48807902280DD14D48001F007A0228D6
:100D300008DA0220484908704948001F007A401D1F
:100D40006946C8716846C079FF280FD008226946F5
:100D500003A80130FFF7DAF9082168460172002183
:100D6000417200F0A3F802A800F088FA53E000F006
:100D70009DF83948007801281AD13948001FC079F8
:100D8000042815DA3648001FC079401C3449091F71
:100D9000C8710846C0790621091A01208840C0B2EE
:100DA0003049097808432F4908701DE04CE033E0D2
:100DB00029480078022817D12948001F007A022804
:100DC00012DA2748001F007A401C2549091F0872C3
:100DD0000846007A0221091A01208840C0B2214940
:100DE000097808431F49087000201B4908701C48F7
:100DF000001F007A02280DD11948001FC07904286D
:100E000008D10C211648001FFFF7F8FBFFF742FC42
:100E10000CB010BD00BF17E00D480078002813D1BA
:100E20000C48407800280FD00A48007820280BD1C1
:100E3000084840780621091A01208840C0B20A49B2
:100E4000097808430849087000BF00BF00BFDFE70A
:100E5000030000207C00002036000020320000202B
:100E6000A8000020370000203800002010B500BF87
:100E70000B480078002801D1082010BD00BF0120D8
:100E8000FFF784F90020074988620862486224213C
:100E90000548FFF754F90120FFF782F90020ECE73D
:100EA0003C00002060030020DA03002010B500BFE2
:100EB00009480078002801D1082010BD00BF01209A
:100EC000FFF764F900200549886208624862012042
:100ED000FFF766F90020F0E73C0000200C0200203C
:100EE00010B5044600BF0D480078002801D1082045
:100EF00010BD00BF00BF002C01D10E20F8E700BFDD
:100F00000120FFF743F906480068206000200449EB
:100F100008600120FFF744F90020E9E73C000020C9
:100F20005C00002070B5044600BF002C01D10E20EB
:100F300070BD00BF1F480078002806D0FFF74EFEA6
:100F40000546002D01D02846F2E71B49606808607D
:100F5000182221461948FFF7D9F8002018490860DF
:100F600024211848FFF7EBF809211748FFF7E7F8A5
:100F700000F0F0FFFFF79EFC00F07CFE00F09EFC0E
:100F80000E48407C8107890F0120FFF71DF90B48AF
:100F9000807C8107890F1420FFF716F91420FFF7D2
:100FA000FFF800200949087001200249087000205C
:100FB000BEE700003C00002044000020CC000020E0
:100FC0005C000020DA030020D00300203D00002058
:100FD00003480078002801D1012070470020FCE779
:100FE0003D00002010B5044600BF264800780028C8
:100FF00001D1082010BD00BF00BF002C01D10E2080
:10100000F8E700BF2048806A002801D10520F1E7F9
:101010000120FFF7BBF81C48406A80001A490858B5
:10102000007820700846406A800008584078607058
:101030000846406A800008588078A0700846406AD8
:10104000800008580079207122780846406A8000A4
:101050000B461858411D601DFFF758F80A48406AB2
:10106000401C09494862082801D30020486206480C
:10107000806A401E044988620120FFF791F8002031
:10108000B8E700003C0000206003002010B50446D3
:1010900000BF0B480078002801D0112010BD00BF10
:1010A00000BF002C01D10E20F8E700BF042221462A
:1010B0000448FFF72BF8012000F0DAFE0020EDE7EE
:1010C0003D0000204800002010B5044600BF0B483A
:1010D0000078002801D0112010BD00BF00BF002CF7
:1010E00001D10E20F8E700BF042221460448FFF793
:1010F0000DF8022000F0BCFE0020EDE73D000020CE
:101100004C00002070B505460C4600BF134800781F
:10111000002801D0112070BD00BF00BF002D01D1FB
:101120000E20F8E700BF00BF092C01DB0720F2E723
:1011300000BF224629460A48FEF7E8FF084808385B
:1011400004740820011BFF200841054908398874F0
:10115000042000F08DFE0020DDE700003D000020AF
:1011600050000020014600BF08480078002801D048
:101170001120704700BF00BF7D2901D90720F8E783
:1011800000BF034AD1740020F3E700003D000020B7
:101190004800002010B500BF19480078002801D091
:1011A000112010BD00BF0020C043164988600020F8
:1011B00015490861154816490860FF20183015497F
:1011C000086010200F49486004200D49087012483B
:1011D000807C124908631048C07C886010484860D1
:1011E0000120FEF7C9FF0120FEF7DAFF00200649C3
:1011F00048608860086101200A4948600020D0E703
:101200003D00002000130040001100406114000068
:101210006C00002000120040480000200015004033
:10122000AE030020001000400E480078042816D1BC
:1012300000200D490860401E0C49886000200C49C0
:1012400008600C49086101200B49086100BF09488A
:1012500000690028FBD00020024908707047FF2079
:101260000230FBE73D000020001200400013004068
:101270006C000020001100400010004010B5044632
:1012800000BF3C480078002801D1082010BD00BFF5
:1012900000BF002C01D10E20F8E700BF00BF20786E
:1012A00000280BD02078202808DC3348007800285C
:1012B00006D120783049C97C884201DD0920E5E764
:1012C00000BF00BF2D48806A082801D30420DDE755
:1012D00000BF29484078002808D1E078002805D0D0
:1012E0002548007D002801D10620CFE70120FEF728
:1012F0004DFF2249096A8900204A5058252221467B
:10130000FEF704FF61781E4A515C481CC117890F23
:10131000091889108900411A6278194B995460782C
:101320001946085C1549096A8900144A5158087120
:101330001046006A401C11460862082801D30020AC
:1013400008620E48806A401C0C4988620120FEF742
:1013500027FF09484078002809D10748007C002869
:1013600005D108480078002801D100F0B7FB002023
:101370008CE700003C000020CC0000200C02002084
:10138000D00300203D000020F0B5059C55000D4322
:101390009E00354326023543069E36043543052616
:1013A000360707273F02F6198700F551F0BD1CB537
:1013B0000446002000900346012211460190204679
:1013C000FFF7E2FF1CBD000001218140014AD1600E
:1013D000704700000005005001218140014A9160E2
:1013E000704700000005005010B5014601208840FC
:1013F000054B5A6803469343034CA36013460340CE
:10140000E36000BF10BD0000000500500146092246
:10141000D2018A1810680922D2018A181060704718
:1014200002465058002801D0012070470020FCE7F8
:1014300000224250704703221202821891607047C6
:10144000024603200002101840680840002801D01E
:10145000012070470020FCE7012242507047000045
:10146000F8B500250026012760480068002802D151
:10147000FEF7F6FFF8BD5E48806A082802D3FEF743
:10148000EFFFF7E75948806880005A4944185748E9
:10149000C0682188884207D1574840784010A17819
:1014A000884201D101260027534840784010A0709F
:1014B0004E48C06820805148007D002805D04E4825
:1014C0004078C007C00F002800D10125002D75D03D
:1014D000FF201C304A49086048480078002853D053
:1014E00001285CD14748806A002840D04548406ABE
:1014F00080004449085840783C498968884236D180
:10150000E078012815D1002E13D13E48406A401CD6
:101510003C494862082801D3002048623948806A63
:10152000401E38498862384800680121084336491E
:1015300008600120E0703348406A80003149085853
:1015400032490860096808783149096888472F4896
:10155000006800782F4908702C48006802782B48F2
:101560000168491D2B48801CFEF7D0FD07E00020D4
:10157000E0702749096888470020264908701E48FE
:101580004078244948700AE00020214909688847CA
:10159000194800781F4908700020487000BF00BF3C
:1015A00005201D490870114880681C49C862194807
:1015B00048601B481B49086002E0FFE7FEF750FF48
:1015C000002F10D0A178094A9268D0B200F0E8F953
:1015D000002808D00C480068042108430A49086024
:1015E0001420FEF7E7FD00BF44E7000000140040B0
:1015F00060030020DA030020AE030020CC000020AE
:10160000001200400C0200205C000020400000207E
:10161000740000208C0300203D00002000150040D5
:10162000291600006C00002010B5FF201830084972
:1016300008600849C87C084909688847074808497C
:10164000486008480849086004200849087010BD2F
:1016500000120040CC00002074000020AE030020E7
:1016600000150040611400006C0000203D000020C7
:1016700010B5FF2014301849086018480068184950
:101680000860184880898238174915229201891804
:10169000486001201449C8600020144908600021F6
:1016A0001248416007208002114948604814886050
:1016B00000201049C8600B480078002802D10E496C
:1016C000096888470D480E4948600E480E49086071
:1016D00003200E49087010BD001200406800002071
:1016E00040A50040CC00002000A0004040A10040E8
:1016F00000F501400011004074000020AE030020FE
:1017000000150040511700006C0000203D00002033
:1017100010B50C480068012108430A49086000F030
:10172000DFFA0948806A002805D1084908701420AA
:10173000FEF740FD04E01420FEF73CFD00F0CEF97A
:1017400010BD00005C0000200C0200203D000020C5
:1017500010B507208002454988604548C0680028C8
:1017600044D044480068002840D0012042494860E5
:1017700040033E49886041480068012108433F49D1
:1017800008603F48C0893F490968401A401C3E49EB
:10179000086000F0A5FA3A480078002811D03B48CC
:1017A000007800280DDD3A49C96AC8B2002100F06E
:1017B000F7F8002805D031480068042108432F4974
:1017C00008603448806A002803D02D48007C012836
:1017D00006D10020304908701420FEF7EBFC44E0ED
:1017E0001420FEF7E7FC00F079F93EE0254908688F
:1017F000411E244A1160002817D101201E4948606B
:1018000040031A4988601E48C089401C1E49086070
:101810001A480068022108431849086000201E4940
:1018200008701420FEF7C6FC1FE0FF201C301B4987
:1018300008601B49096808781A49096888471A48E6
:101840001349486019481A49086002201249087073
:101850000120094908604003044948601548406870
:10186000002802D001201449086010BD00F5014095
:10187000001100400014004000A000405C00002067
:10188000CC0000206000002064000020AE03002097
:10189000001500400C0200203D0000200012004016
:1018A00040000020740000208C030020711600000E
:1018B0006C00002040A10040001000401348144973
:1018C0005122120189180865124911488018416592
:1018D0000E48001D0E49891888650E49091D0C48DF
:1018E0008018C1650C480A49891808660749F0390B
:1018F0000748801841660848001D05498918886610
:10190000064903488018C166704700000011004076
:1019100000F0014000A0004040A100400010004045
:1019200000200449086248628862034908624862EC
:10193000886270470C0200206003002070B50546E5
:101940000C46E07D00280AD1FF2109312846FFF727
:101950006FFD00BF052000022818806970BDFF21BF
:1019600009312846FFF764FD00BF05200002281852
:101970008069C0B2627EE1688854607E401C6076F7
:1019800000BFEBE77FB504460D46164601206946C9
:1019900008706846057201966268216890477FBDAD
:1019A00070B504460D462F48806A082857D22E4845
:1019B000007801280ED12D480078202801DD002074
:1019C00070BD2A4800782749096A8900254A51587C
:1019D000087012E024484078002806D12149096A9D
:1019E0008900204A5158087007E01F48C07C1D49F3
:1019F000096A89001B4A515808701A49096A890006
:101A0000184B59580A781946096A89005958481DCF
:101A10001649891CFEF77AFB1248006A80001149BA
:101A2000085844701248806840B2096A89000D4A1B
:101A3000515888701046006A800011460858057198
:101A40000846006A401C0862082801D3002008628A
:101A50000448806A401C034988620120B0E70020E6
:101A6000AEE7000060030020CC000020AE030020A1
:101A70004015004010B515480078002808D11448DA
:101A8000007814490978884202D01720FFF7ACFC8F
:101A90000E480078002805D10D49087001210E4834
:101AA000C17109E002210C48C1710A480078084957
:101AB000097888430849087201200749C870084618
:101AC000FFF7DCFB1620FFF77FFC10BD0C000020A9
:101AD00038000020370000200D00002010B5012044
:101AE000534908605348406A800052490858524997
:101AF000086052480078002802D0012875D128E0FB
:101B00004D49096808784E49096888474A4800687D
:101B100000794C49087000204870474800680278F6
:101B200045480168491D4748801CFEF7EFFAFF2031
:101B30001C30454908601120444948603F48C0892D
:101B400043490860434844490860022043490870FB
:101B50004CE039480068C078002803D03748007D41
:101B6000002801D1012000E000200446324800682E
:101B70000078344908703048006800794006000E4B
:101B80004870084640780121614008432D4948705B
:101B900029480068027828480168491D2948801CA6
:101BA000FEF7B4FA002C11D0FF201C302649086043
:101BB0001120264948602148C089254908602548E8
:101BC000254908600220254908700CE0FF201430E8
:101BD0001D49086010201D49486021481E490860C1
:101BE00001201E49087001E0FFE700BF00BF124856
:101BF000006840781B49C8620F480068417801209E
:101C00008840184908631848C07C88600D484860BF
:101C10000120FEF7B1FA0120FEF7C2FA00201349B5
:101C200048608860086101201149086010BD00000B
:101C3000640000200C02002040000020CC000020A6
:101C4000740000208C0300200012004000130040AC
:101C500060000020711600006C0000203D00002094
:101C6000111700000015004048000020001100403E
:101C700000100040042004490861002088600348E7
:101C8000034908607047000000A500400202000000
:101C900000A2004070B505460C46FF211D312846C4
:101CA000FFF7C6FBA18AA068465CA08A401CA08200
:101CB0003046052109026918C86100BF70BD7FB5B3
:101CC00004460D4600206946087068460572A06803
:101CD00001900020A07568466268216890477FBD2A
:101CE00010B50C48806A002812D00120FEF74EFA89
:101CF0000848806A401E074988620846406A401CBE
:101D00004862082801D3002048620120FEF748FA03
:101D100010BD00000C020020F0B585B005460C4651
:101D2000012149022846FFF78BFB00282BD0FF2119
:101D300025312846FFF774FB002824D0FF212531E8
:101D40002846FFF775FB812189002846FFF773FBC2
:101D5000A07E002803D104212846FFF77DFB022046
:101D6000694608702846FFF751FB0390E17D6846FD
:101D70000172E06801900020E07520766846626894
:101D80002168904739E004212846FFF759FB0028D5
:101D900033D0FF2109312846FFF742FB00282CD021
:101DA00021462846FFF7CAFDE07D617E884224D1A6
:101DB000207E00280ED0E668677E207EE0752069D0
:101DC000E060002020766076324639462046FFF7F4
:101DD000D9FD12E0A07E002803D104212846FFF798
:101DE0003BFB812189002846FFF725FB0020E07599
:101DF000617EE2682046FFF7C5FDFF211D312846C0
:101E0000FFF70EFB002814D0A08AA17D884204DAD7
:101E100021462846FFF73EFF0BE0FF211D312846F3
:101E2000FFF706FBA07D002803D0A17D2046FFF729
:101E300046FFFF2145312846FFF7F2FA002815D06A
:101E4000FF2145312846FFF7F3FAA07E002803D092
:101E500000212846FFF700FBE07D002806D0002087
:101E6000E075617EE2682046FFF78CFD05B0F0BDAD
:101E700010B50446E007C00F002804D00F48FEF755
:101E8000C4FA0F49C86102202040002805D00B4841
:101E9000001DFEF7BAFA0A49086204202040002813
:101EA0000BD006480830FEF7B7FA054948620348E8
:101EB0000C30FEF7B1FA0249886210BD48000020DC
:101EC000001500401048007A104908610E48007A59
:101ED00000280AD0012804D002280AD0032810D1F3
:101EE0000BE030200A4908600CE0402008490860F7
:101EF00008E0FA200649086004E040200449086030
:101F000000E000BF00BF7047CC000020001500407B
:101F1000680000200B48407A0B4948630948407A22
:101F2000022804D10948C8630948886309E00548C4
:101F3000407A012805D1FF200349C863FF200830FB
:101F400088637047CC00002000150040FFFF0000B0
:101F50002110010010B500F02BF8FFF7B3FF00F0DF
:101F60000DF8FFF7D7FF0349C87C03490968884784
:101F700010BD0000CC00002074000020084800784C
:101F8000002805D0012807D106480749086004E069
:101F900006480549086000E000BF00BF7047000028
:101FA000CC000020F11F000074000020C51F0000BD
:101FB0000248807A0249C86070470000CC000020C7
:101FC000001500400749084A51610849497C491EEB
:101FD0000904012212061143020211430143024A7D
:101FE0009161704700010100001500404800002089
:101FF00001460748074A50610748407C401E0004DC
:102000000122120610432030024A906170470000FE
:1020100006000300001500404800002002304C017B
:10202000030405060708090A0C20232427292A2C63
:102030002E3234434445464748494A4D4E0000003D
:10204000010000000000000001020000FA00000092
:1020500000010220000000007820000000000020A5
:102060007C000000EC030000F42000007C00002055
:10207000840B0000FC0300000000000000000000D2
:1020800000000000000A00000000EEDD01DDEEDDD2
:10209000EEDDEEDD000000000000000000000000AA
:1020A0000000000000000000000000000000000030
:1020B0000000000000000000000000000000000020
:1020C000E7E7E7E7C2C2C2C2E7C2C3C4C5C6C7C822
:1020D0000805FF02000000000000000000000000F2
:1020E00000000000000000000000000000000000F0
:0420F0000024F400D4
:04000005000000C136
:00000001FF
