:020000040000FA
:10000000300C0020D5000000EF000000F1000000DF
:1000100000000000000000000000000000000000E0
:10002000000000000000000000000000F3000000DD
:100030000000000000000000F5000000F7000000D4
:10004000F900000041020000CD030000F9000000AB
:10005000F900000000000000F9000000F9000000B5
:1000600095030000F9000000F9000000F90000000D
:10007000F9000000F9000000F9000000F90000009C
:10008000F9000000F9000000F9000000F90000008C
:10009000C1020000F9000000F9000000F9000000B2
:1000A000F9000000F900000000000000000000005E
:1000B0000000000000000000000000000000000040
:1000C0000348854600F046F800480047E50900006F
:1000D000300C00200321094802680A4302600848E6
:1000E00002680A4302600748804707480047FEE766
:1000F000FEE7FEE7FEE7FEE7FEE70000240500401E
:100100005405004031030000C100000003460B43CA
:100110009B0703D009E008C9121F08C0042AFAD2BD
:1001200003E00B780370401C491C521EF9D2704743
:10013000D2B201E00270401C491EFBD2704700227F
:10014000F6E710B513460A4604461946FFF7F0FFD6
:10015000204610BD064C0125064E05E0E36807CC9D
:100160002B430C3C98471034B442F7D3FFF7ACFF55
:10017000AC1F0000CC1F0000C206D20E012191402E
:10018000014A11607047000080E200E0C206D20E12
:1001900001219140014A11607047000080E100E0B8
:1001A000C206D20E01219140014A11607047000041
:1001B00000E100E0C206D20E01219140014A116027
:1001C0007047000000E200E010B5002819DA1A4A72
:1001D00003071B0F083B9B089B00D2588307DC0ECC
:1001E000FF23A3409A438B071B0E8407E40EA34012
:1001F0001A43114B0407240F083CA408A4001A5109
:1002000018E00E4A03231B02D21883089B00D25821
:100210008307DC0EFF23A3409A438B071B0E840742
:10022000E40EA3401A43054B032424021B1984083F
:10023000A4001A5110BD00001CED00E000E100E038
:1002400010B51B480068002808D01A484068C0074D
:10025000C00F002802D00020154908601448C0686B
:1002600000280FD01348406808210840002809D012
:1002700000200F49C86010480068002802D00E48CE
:10028000006880470A48006900280FD00948406884
:1002900010210840002809D00020054908610748BE
:1002A0000068002802D005480068804710BD0000A3
:1002B0000011004000130040AC000020A800002006
:1002C0003EB519480068019002A800F07BFD044685
:1002D000002C27D115480068002823D00298C007B9
:1002E000C00F002806D000206946087068460F49F4
:1002F00009688847022102980840002806D001209A
:1003000069460870684609490968884704210298C7
:100310000840002806D00220694608706846034954
:10032000096888473EBD0000A00000208000002032
:1003300010B500F0F7FA002805D0104810494860C1
:10034000C8131049886100F0D1FA002802D00120BA
:100350000D49886000F01CFB00280ED00B48006897
:10036000012807D00A480949086000BF074800680B
:100370000128FBD1C0200549486110BDDFFF07C03F
:1003800000050040006C00400006004000EC064004
:100390007593000010B500200A4908600A480068FB
:1003A00000280BD008480068401E0749086008462E
:1003B0000068002804D100F08DF801E000F004FA94
:1003C00010BD0000408100405000002010B50249DF
:1003D000024801F05BFC10BDE0000020002000405E
:1003E00002E008C8121F08C1002AFAD170477047FE
:1003F000002001E001C1121F002AFBD1704710B597
:100400000446204600F002F800BA10BD0146086814
:100410000D4A024012090C4BDB4303401B011A43F7
:1004200010460A4A02409208084BDB4303409B00F7
:100430001A431046064A02405208054BDB4303406C
:100440005B001A4310467047F0F0F0F0CCCCCCCCF7
:10045000AAAAAAAA10B5FF201430104908601049B2
:10046000C87C1049096888470F4810494860002037
:100470000F49086101200F49086100BF0C4800695D
:100480000028FBD000200A490861FF2018300349EA
:10049000086001200749486010BD000000120040BC
:1004A000FC000020B0000020DE030020001500400A
:1004B00000110040001000400020054908600120A4
:1004C0008107086000BF024800680028FBD0704721
:1004D0000001004010B5152000F010FF012000F0D1
:1004E000DBF8032212491348FFF710FE00201249DF
:1004F00008701049104A1278885C00F0A5FD0028A9
:100500000AD00C490C4A1278885C00F09DFD044624
:10051000FF21923100F022FB0848094908600120C0
:10052000084908700849087001F07AFA10BD000007
:10053000901F00004A0000205400002060EA0000E4
:10054000500000204D0000206900002070B50C46CE
:10055000CE17B60F3619B610B6008E1B00D070BD80
:10056000012424072569EC01631B002203E010CB62
:1005700010C0141DA2B28A42F9DB00BFEFE70000F1
:1005800070B502460C46CE17B60F3619B610B60037
:100590008E1B00D070BD72B6012424072569EC01C2
:1005A000601B02241A4E746000BF1A4C2468002C91
:1005B000FBD0174CA06000BF164C2468002CFBD069
:1005C0000124134E746000BF124C2468002CFBD031
:1005D00000230AE01468046000BF0E4C2468002C5D
:1005E000FBD0001D121D1C1DA3B28B42F2DB00BF0D
:1005F000084C2468002CFBD00024054E746000BF1A
:10060000044C2468002CFBD062B600BFC2E7000097
:1006100000E5014000E4014010B5152000F080FE27
:10062000002014490870144908601449087000F04B
:100630003FF9002000F030F8114800F0B7FC1048F6
:10064000C01FC17A012000F08BFD03220C49C91E96
:100650000C48FFF75BFD03200B49087010200B4985
:10066000086000200A49086001200A49087000F06B
:1006700011F910BD4D00002050000020690000203D
:10068000630000204A000020540000206C0000207D
:10069000740000207100002030B587B00446182295
:1006A000104901A8FFF732FD0121684601710021C0
:1006B0004182012101730C480290012021464140F2
:1006C000684641710121017601A800F09DFB0546B5
:1006D00000BF002D02D0284607B030BD00BF28461D
:1006E000FAE70000941F0000950B000010B51520DC
:1006F00000F0F8FD152000F013FE162000F0F2FDCA
:10070000162000F00DFE172000F0ECFD172000F081
:1007100007FE182000F0E6FD182000F001FE03217E
:10072000112000F0D2FD0321122000F0CEFD10BDFB
:1007300010B511480078401C0F4908700846007831
:10074000032801DB0020087000BF00F0B3FB002885
:10075000FBD00A49084A1278885C00F075FC002832
:1007600009D00649044A1278885C00F06DFC044602
:10077000752100F0F3F910BD540000204A0000205C
:1007800010B501F05FF8002007E0252141430A4A37
:1007900089188200094B9950401C0828F5DB00207D
:1007A00007E025214143064A89188200054B9950EC
:1007B000401C0828F5DB10BD140100203C0200207D
:1007C000680200209003002010B51C480068002833
:1007D00007D11B480068002803D11A480078002878
:1007E0002BD016480068002804D014480068401E2A
:1007F0001249086012480068002804D010480068B8
:10080000401E0F4908600D480068002803D00D48BD
:100810000078002811D000200A49087004200749F8
:10082000086007480068002801D11020086000F027
:100830006DFCFFF77DFF00F01FFC10BD6C00002079
:10084000740000207100002001200D49C8600020C4
:100850000C49486004200861022088607D20C000A7
:100860000849403108600120074908600004074931
:100870004860082001218140054A116000BF70478F
:10088000008000400085004000820040008300405E
:1008900000E100E001200449C8600020034908602D
:1008A00001200149086070470080004040810040FD
:1008B00001200149486070470080004001464878A7
:1008C000002801D00020704708780A2801D00020B5
:1008D000F9E74879EE2801D00020F4E78879DD288F
:1008E00001D00020EFE70120EDE700000C48008C6C
:1008F000C0B2012812D10A48808C0007000F0028DE
:100900000CD10748806AF0210840402806D10448ED
:10091000C06A0840002801D1012070470020FCE790
:10092000C00F00F01948008CC0B201282CD1174824
:10093000808C0007000F002826D11448806AF0211F
:100940000840002806D11148C06A0840002801D19B
:10095000012070470D48806AF0210840102806D118
:100960000A48C06A0840002801D10120F1E7074881
:10097000806AF0210840302806D10448C06A084047
:10098000002801D10120E4E70020E2E7C00F00F0D9
:100990001348008CC0B201281FD11148808C000779
:1009A000000F002819D10E48806AF0210840A028C5
:1009B00006D10B48C06A0840002801D101207047C9
:1009C0000748806AF0210840D02806D10448C06A50
:1009D0000840002801D10120F1E70020EFE70000E6
:1009E000C00F00F01CB537A00068019036A0006869
:1009F0000090FFF77BFE0024002C04D0FF21FB3188
:100A0000204600F0ABF8FFF757FDFFF71DFF0C2164
:100A10002E48FFF79BFD2D4800682D49884202D0E3
:100A200008462A490860122000F070FC002802D114
:100A300002202849087001A800F09AFA044600BF75
:100A4000002C01D020461CBD00BF2048C01D00F076
:100A5000ADFA044600BF002C01D02046F3E700BFEA
:100A60001A4800681A49884207D11848C07AFF28F6
:100A700003D01648C07A694648701448C07AFF28E7
:100A800001D1012000E002200146684600F0ACFAE6
:100A9000044600BF002C01D02046D4E700BF0B481D
:100AA000C07AFF2804D0112000F030FC002802D1C9
:100AB000FFF710FD01E0FFF7AFFD62B6FFF7EAFEBA
:100AC00000BFFEE71234679888FF00005C0000203A
:100AD0007856341268000020002800D1704700BF0B
:100AE00000BF00BF00BF00BF00BF00BF00BF00BF0E
:100AF00006490968064A914200D101E000BF00BFE3
:100B0000401E00D0ECE700BFE8E70000B400002082
:100B10000024F40010B50F2080020B4988600020EB
:100B20000A49087000F08EFE24210948FFF707FBF0
:100B300009210848FFF703FB1420FFF727FB0320D8
:100B400005490860002010BD00F501407900002033
:100B50000A040020000400200012004000BF00BF73
:100B600000BF00BF00BFBFF34F8F00BF00BF00BF7B
:100B700006480749C86000BF00BF00BFBFF34F8FE2
:100B800000BF00BF00BF00BF00BFFDE70400FA05C3
:100B900000ED00E0F8B505462878002804D00128CB
:100BA00029D0022826D155E07148007801280ED1BD
:100BB00070480078012809D102206E490870192078
:100BC0004001FFF789FF00F015FF00BF12E0684801
:100BD000007800280ED1162000F0A2FB0420664900
:100BE0000860FFF7A5FD0020FFF756FD00F044FA6E
:100BF000FFF750FEBAE000F0CBF85D48007801281E
:100C00000BD1FFF795FD5B480078022802D100F078
:100C1000F1FE1EE000F004FF1BE0554800780028BC
:100C200017D1162000F07CFB042053490860FFF721
:100C30007FFD0020FFF730FD00F01EFAFFF72AFECF
:100C4000182000F05BFB1420FFF746FF182000F08F
:100C500067FB8BE0494800F037F9454800780128E8
:100C600020D14448007802281CD144480078082844
:100C70007BD1424C641D0322211D4148FFF746FAF7
:100C8000042221463E48C01CFFF740FAE0793C4967
:100C9000091FC8720C213A48001FFFF771FCFFF7CB
:100CA000BBFC62E03248007800285ED13348FFF791
:100CB00005FE002859D01020324908600024002683
:100CC0002E48C079012801D1012427E02B48C079A2
:100CD000022823D12948007A2949091FC97A062206
:100CE000521A0121914008402549091FC97A06225C
:100CF000521A01219140884210D101240126172166
:100D000001208840204B5A68034693431E4FBB6026
:100D100013460340FB6000BF00BF00BF002C14D08F
:100D2000FFF7C6FD00F0F2F90120FFF7B5FC14490A
:100D3000091FC97A491EFF225F3251430846FFF757
:100D4000CBFE304600F028FE0EE0FFF7B1FD00F0CC
:100D5000DDF90020FFF7A0FC04200749086001200E
:100D60000A490870FFF796FD00BF00BF00BFF8BD3D
:100D70004D000020690000206C000020B800002019
:100D80006000002074000020000500507100002069
:100D900010B500BF09480078002801D1082010BD17
:100DA00000BF0120FFF7F2F90020054988620862C0
:100DB00048620120FFF7F4F90020F0E778000020F6
:100DC0003C02002010B5044600BF0D480078002802
:100DD00001D1082010BD00BF00BF002C01D10E20A2
:100DE000F8E700BF0120FFF7D1F90648006820604E
:100DF0000020044908600120FFF7D2F90020E9E74C
:100E0000780000209800002070B5044600BF002C38
:100E100001D10E2070BD00BF1F480078002806D009
:100E2000FFF778FE0546002D01D02846F2E71B4962
:100E300060680860182221461948FFF767F900200A
:100E40001849086024211848FFF779F90921174843
:100E5000FFF775F901F038F8FFF792FC00F0C4FED7
:100E600000F0BEFC0E48407C8107890F0120FFF78F
:100E7000ABF90B48807C8107890F1420FFF7A4F998
:100E80001420FFF78DF9002009490870012002495C
:100E900008700020BEE700007800002080000020DD
:100EA000FC000020980000200A040020000400201C
:100EB0007900002003480078002801D10120704704
:100EC0000020FCE77900002010B5044600BF26484A
:100ED0000078002801D1082010BD00BF00BF002C01
:100EE00001D10E20F8E700BF2048806A002801D118
:100EF0000520F1E70120FFF749F91C48406A80000E
:100F00001A490858007820700846406A800008583E
:100F1000407860700846406A800008588078A07069
:100F20000846406A800008580079207122780846F7
:100F3000406A80000B461858411D601DFFF7E6F817
:100F40000A48406A401C09494862082801D3002029
:100F500048620648806A401E044988620120FFF703
:100F60001FF90020B8E7000078000020900300205F
:100F700010B5044600BF0B480078002801D01120AE
:100F800010BD00BF00BF002C01D10E20F8E700BF4C
:100F9000042221460448FFF7B9F8012000F022FF9F
:100FA0000020EDE7790000208400002010B5044601
:100FB00000BF0B480078002801D0112010BD00BFF1
:100FC00000BF002C01D10E20F8E700BF042221460B
:100FD0000448FFF79BF8022000F004FF0020EDE733
:100FE000790000208800002070B505460C4600BF3F
:100FF00013480078002801D0112070BD00BF00BF49
:10100000002D01D10E20F8E700BF00BF092C01DB45
:101010000720F2E700BF224629460A48FFF776F884
:101020000848083804740820011BFF2008410549BE
:1010300008398874042000F0D5FE0020DDE70000A8
:10104000790000208C000020014600BF084800788D
:10105000002801D01120704700BF00BF7D2901D9B1
:101060000720F8E700BF034AD1740020F3E700002F
:10107000790000208400002010B500BF19480078D6
:10108000002801D0112010BD00BF0020C043164928
:101090008860002015490861154816490860FF203E
:1010A00018301549086010200F49486004200D4988
:1010B00008701248807C124908631048C07C886020
:1010C000104848600120FFF757F80120FFF768F843
:1010D0000020064948608860086101200A4948608C
:1010E0000020D0E7790000200013004000110040EC
:1010F00085130000A800002000120040840000209A
:1011000000150040DE030020001000400E4800786B
:10111000042816D100200D490860401E0C49886043
:1011200000200C4908600C49086101200B49086146
:1011300000BF094800690028FBD000200249087060
:101140007047FF200230FBE77900002000120040CA
:1011500000130040A80000200011004000100040D3
:1011600070B504460D4600BF09480078002801D03C
:10117000112070BD00BF00BF082C01DB0720F8E77D
:1011800000BF04480555042000F02CFE0020F0E7C5
:10119000790000208C00002010B5044600BF3C48B8
:1011A0000078002801D1082010BD00BF00BF002C2E
:1011B00001D10E20F8E700BF00BF207800280BD037
:1011C0002078202808DC33480078002806D12078D1
:1011D0003049C97C884201DD0920E5E700BF00BF36
:1011E0002D48806A082801D30420DDE700BF294884
:1011F0004078002808D1E078002805D02548007DF7
:10120000002801D10620CFE70120FEF7BFFF2249C9
:10121000096A8900204A505825222146FEF776FFA8
:1012200061781E4A515C481CC117890F0918891042
:101230008900411A6278194B995460781946085C04
:101240001549096A8900144A515808711046006A04
:10125000401C11460862082801D3002008620E488D
:10126000806A401C0C4988620120FEF799FF0948FA
:101270004078002809D10748007C002805D108489B
:101280000078002801D100F0E3FB00208CE700008B
:1012900078000020FC0000203C0200200004002018
:1012A00079000020F0B5059C55000D439E003543A4
:1012B00026023543069E36043543052636070727A2
:1012C0003F02F6198700F551F0BD7CB505460C4686
:1012D0000020009023460246014601902846FFF771
:1012E000E1FF7CBD1CB504460020009003460122AE
:1012F000114601902046FFF7D5FF1CBD012181401A
:10130000014AD160704700000005005001460348C3
:101310000069C840C007C00F7047000000050050BA
:1013200001218140014A9160704700000005005092
:1013300001460922D2018A1810680922D2018A18AE
:101340001060704702465058002801D001207047B5
:101350000020FCE70022425070470322120282184C
:101360009160704702460320000210184068084050
:10137000002801D0012070470020FCE701224250E4
:1013800070470000F8B50025002601276048006876
:10139000002802D1FFF75EF8F8BD5E48806A082891
:1013A00002D3FFF757F8F7E75948806880005A4999
:1013B00044185748C0682188884207D15748407868
:1013C0004010A178884201D1012600275348407877
:1013D0004010A0704E48C06820805148007D002811
:1013E00005D04E484078C007C00F002800D1012525
:1013F000002D75D0FF201C304A490860484800780D
:10140000002853D001285CD14748806A002840D08A
:101410004548406A80004449085840783C498968FA
:10142000884236D1E078012815D1002E13D13E48EC
:10143000406A401C3C494862082801D300204862A9
:101440003948806A401E384988623848006801215E
:101450000843364908600120E0703348406A800044
:1014600031490858324908600968087831490968E3
:1014700088472F48006800782F4908702C4800687A
:1014800002782B480168491D2B48801CFEF73EFE60
:1014900007E00020E07027490968884700202649B6
:1014A00008701E484078244948700AE0002021490D
:1014B00009688847194800781F490870002048705B
:1014C00000BF00BF05201D490870114880681C49F5
:1014D000C862194848601B481B49086002E0FFE7E2
:1014E000FEF7B8FF002F10D0A178094A9268D0B259
:1014F00000F0E8F9002808D00C48006804210843EF
:101500000A4908601420FEF755FE00BF44E70000BA
:1015100000140040900300200A040020DE03002095
:10152000FC000020001200403C0200209800002037
:101530007C000020B0000020BC03002079000020C7
:10154000001500404D150000A800002010B5FF2038
:101550001830084908600849C87C08490968884764
:1015600007480849486008480849086004200849B5
:10157000087010BD00120040FC000020B0000020E8
:10158000DE0300200015004085130000A8000020A5
:101590007900002010B5FF20143018490860184861
:1015A0000068184908601848808982381749152250
:1015B00092018918486001201449C860002014492C
:1015C00008600021124841600720800211494860EC
:1015D0004814886000201049C8600B480078002833
:1015E00002D10E49096888470D480E4948600E48E7
:1015F0000E49086003200E49087010BD001200401B
:10160000A400002040A50040FC00002000A00040F5
:1016100040A1004000F5014000110040B000002052
:10162000DE0300200015004075160000A800002011
:101630007900002010B50C480068012108430A49D0
:10164000086000F007FB0948806A002805D10849B6
:1016500008701420FEF7AEFD04E01420FEF7AAFD8A
:1016600000F0F6F910BD0000980000203C020020B8
:101670007900002010B50720800245498860454860
:10168000C068002844D044480068002840D00120A9
:101690004249486040033E49886041480068012152
:1016A00008433F4908603F48C0893F490968401ADC
:1016B000401C3E49086000F0CDFA3A480078002806
:1016C00011D03B48007800280DDD3A49C96AC8B2FC
:1016D000002100F0F7F8002805D031480068042107
:1016E00008432F4908603448806A002803D02D48F9
:1016F000007C012806D10020304908701420FEF734
:1017000059FD44E01420FEF755FD00F0A1F93EE03C
:1017100025490868411E244A1160002817D101207C
:101720001E49486040031A4988601E48C089401C11
:101730001E4908601A4800680221084318490860D9
:1017400000201E4908701420FEF734FD1FE0FF2022
:101750001C301B4908601B49096808781A49096848
:1017600088471A481349486019481A4908600220F6
:101770001249087001200949086040030449486083
:1017800015484068002802D001201449086010BDA7
:1017900000F50140001100400014004000A000408E
:1017A00098000020FC0000209C000020A0000020E9
:1017B000DE030020001500403C02002079000020DC
:1017C000001200407C000020B0000020BC0300207C
:1017D00095150000A800002040A100400010004026
:1017E00013481449512212018918086512491148F9
:1017F000801841650E48001D0E49891888650E49FC
:10180000091D0C488018C1650C480A4989180866EA
:101810000749F0390748801841660848001D054906
:1018200089188866064903488018C1667047000019
:101830000011004000F0014000A0004040A1004025
:101840000010004000200449086248628862034991
:1018500008624862886270473C02002090030020C2
:1018600070B505460C46E07D00280AD1FF210931FC
:101870002846FFF76FFD00BF052000022818806989
:1018800070BDFF2109312846FFF764FD00BF052028
:10189000000228188069C0B2627EE1688854607EC8
:1018A000401C607600BFEBE77FB504460D46164648
:1018B00001206946087068460572019662682168D1
:1018C00090477FBD70B504460D462F48806A0828B2
:1018D00057D22E48007801280ED12D4800782028B4
:1018E00001DD002070BD2A4800782749096A890077
:1018F000254A5158087012E024484078002806D143
:101900002149096A8900204A5158087007E01F4898
:10191000C07C1D49096A89001B4A515808701A4940
:10192000096A8900184B59580A781946096A8900CA
:101930005958481D1649891CFEF7E8FB1248006AF1
:1019400080001149085844701248806840B2096A02
:1019500089000D4A515888701046006A800011466F
:10196000085805710846006A401C0862082801D31F
:10197000002008620448806A401C034988620120F4
:10198000B0E70020AEE7000090030020FC0000203C
:10199000DE0300204015004070B50446134805786A
:1019A000FFF7F6F9002C04D0002D01D1012500E04D
:1019B00000250021252068430D4A8018C17025218B
:1019C00069438818FFF7E8FB002C0AD10748007824
:1019D000002803D101200549087002E000200349D6
:1019E00008701620FFF78AFC70BD00007000002010
:1019F0000000002000B58BB0FFF7CAF91B21684634
:101A00004172002101A88171022168460171002103
:101A10004171C17101A8FFF7BFFB0BB000BD000011
:101A200000B58BB0FFF7B4F91A2168464172074838
:101A3000017801A88171022168460171002141717C
:101A4000C17101A8FFF7A8FB0BB000BD6800002022
:101A500010B50120534908605348406A800052493C
:101A600008585249086052480078002802D00128DE
:101A700075D128E04D49096808784E4909688847BA
:101A80004A48006800794C4908700020487047486F
:101A90000068027845480168491D4748801CFEF7E8
:101AA00035FBFF201C30454908601120444948603F
:101AB0003F48C089434908604348444908600220C0
:101AC000434908704CE039480068C078002803D0CA
:101AD0003748007D002801D1012000E000200446A5
:101AE000324800680078344908703048006800794E
:101AF0004006000E487008464078012161400843C6
:101B00002D49487029480068027828480168491D15
:101B10002948801CFEF7FAFA002C11D0FF201C3057
:101B2000264908601120264948602148C089254976
:101B300008602548254908600220254908700CE006
:101B4000FF2014301D49086010201D4948602148BD
:101B50001E49086001201E49087001E0FFE700BF30
:101B600000BF1248006840781B49C8620F480068EF
:101B7000417801208840184908631848C07C886073
:101B80000D4848600120FEF7F7FA0120FEF708FB38
:101B900000201349486088600861012011490860ED
:101BA00010BD0000A00000203C0200207C000020AE
:101BB000FC000020B0000020BC0300200012004008
:101BC000001300409C00002095150000A800002094
:101BD0007900002035160000001500408400002028
:101BE000001100400010004004200449086100205A
:101BF00088600348034908607047000000A5004062
:101C00000202000000A2004070B505460C46FF210C
:101C10001D312846FFF79EFBA18AA068465CA08A7A
:101C2000401CA0823046052109026918C86100BF26
:101C300070BD7FB504460D460020694608706846B1
:101C40000572A06801900020A0756846626821684E
:101C500090477FBD10B50C48806A002812D0012043
:101C6000FEF794FA0848806A401E074988620846D1
:101C7000406A401C4862082801D3002048620120C5
:101C8000FEF78EFA10BD00003C020020F0B585B0D2
:101C900005460C46012149022846FFF763FB002850
:101CA0002BD0FF2125312846FFF74CFB002824D0FC
:101CB000FF2125312846FFF74DFB81218900284669
:101CC000FFF74BFBA07E002803D104212846FFF735
:101CD00055FB0220694608702846FFF729FB039050
:101CE000E17D68460172E06801900020E075207691
:101CF000684662682168904739E004212846FFF76A
:101D000031FB002833D0FF2109312846FFF71AFBA9
:101D100000282CD021462846FFF7A2FDE07D617EF9
:101D2000884224D1207E00280ED0E668677E207E7F
:101D3000E0752069E0600020207660763246394602
:101D40002046FFF7B1FD12E0A07E002803D1042158
:101D50002846FFF713FB812189002846FFF7FDFA8B
:101D60000020E075617EE2682046FFF79DFDFF21BF
:101D70001D312846FFF7E6FA002814D0A08AA17D7D
:101D8000884204DA21462846FFF73EFF0BE0FF2198
:101D90001D312846FFF7DEFAA07D002803D0A17D83
:101DA0002046FFF746FFFF2145312846FFF7CAFAD4
:101DB000002815D0FF2145312846FFF7CBFAA07E39
:101DC000002803D000212846FFF7D8FAE07D00283C
:101DD00006D00020E075617EE2682046FFF764FDD2
:101DE00005B0F0BD10B50446E007C00F002804D0D0
:101DF0000F48FEF704FB0F49C8610220204000286D
:101E000005D00B48001DFEF7FAFA0A4908620420C3
:101E1000204000280BD006480830FEF7F7FA0549A5
:101E2000486203480C30FEF7F1FA0249886210BD9F
:101E300084000020001500401048007A1049086115
:101E40000E48007A00280AD0012804D002280AD0BF
:101E5000032810D10BE030200A4908600CE0402034
:101E60000849086008E0FA200649086004E04020BC
:101E70000449086000E000BF00BF7047FC0000207C
:101E800000150040A40000200B48407A0B4948632D
:101E90000948407A022804D10948C8630948886380
:101EA00009E00548407A012805D1FF200349C863AD
:101EB000FF20083088637047FC00002000150040B8
:101EC000FFFF00002110010010B500F02BF8FFF714
:101ED000B3FF00F00DF8FFF7D7FF0349C87C0349B3
:101EE0000968884710BD0000FC000020B0000020F9
:101EF00008480078002805D0012807D1064807497E
:101F0000086004E006480549086000E000BF00BF23
:101F100070470000FC000020651F0000B00000209A
:101F2000391F00000248807A0249C86070470000EB
:101F3000FC000020001500400749084A516108498B
:101F4000497C491E09040122120611430202114371
:101F50000143024A916170470001010000150040F1
:101F60008400002001460748074A50610748407C2A
:101F7000401E00040122120610432030024A9061E4
:101F80007047000006000300001500408400002098
:101F900002304C00010000000000000001020000BF
:101FA000FA0000000001022000000000CC1F000029
:101FB00000000020B8000000E003000084200000C2
:101FC000B8000020780B0000F003000020010000A2
:101FD00000123456789ABCDEF0123456789ABCDE81
:101FE000F0123456789ABCDEF0123456789ABCDE81
:101FF000F020010000000FEDCBA9876543210FED14
:10200000CBA9876543210FEDCBA9876543210FED50
:10201000CBA98765432100000000000000000000FC
:1020200000000000000000000000000000000000B0
:10203000000000FF010000000000000000000000A0
:102040000000000000000000000000000000000090
:10205000E7E7E7E7C2C2C2C2E7C2C3C4C5C6C7C892
:102060000805FF0200000000000000000000000062
:102070000000000000000000000000000000000060
:042080000024F40044
:04000005000000C136
:00000001FF
